:020000040800F2
:10300000B80A0020A9300008D1520008FF3000089B
:1030100000000000000000000000000000000000B0
:10302000000000000000000000000000A165000892
:103030000000000000000000B730000841700008E8
:10304000B9530008BB30000885420008BB300008B7
:103050007D790008BB300008BB300008D170000843
:10306000F53A0008BB300008BB300008BB30000850
:10307000BB30000801730008BB300008BB300008FB
:10308000BB300008BB300008BB300008BB30000874
:10309000BB3000080348854600F080FC004800472C
:1030A000318F0008B80A00200448804704480047D0
:1030B000FEE7FEE7FEE7FEE7FEE7FEE745700008F5
:1030C00095300008D2B201E00270401C491EFBD2CC
:1030D00070470022F6E710B513460A460446194623
:1030E000FFF7F0FF204610BD421C0178401C00296C
:1030F000FBD1801A704780B502F032FA80BDFEE73E
:10310000A55A10B5431A934209D28318881803E0D0
:10311000401E01785B1E1970521EF9D210BD034685
:103120000B439B0703D009E008C9121F08C0042AFB
:10313000FAD203E00B780370401C491C521EF9D2EE
:1031400010BD30B504460020034600E05B1C9342EE
:1031500003D2E05CCD5C401BF8D030BDF8B5024630
:103160004A40D40F42004B0052085B089A4202D2F8
:103170000246084611464A0023D0C30D4A00DDB27C
:10318000120EAD1A202D35DA49020126490AF6053C
:103190008A19002C00D0524220214F1B1146B94001
:1031A0002A411018C20D9A4221D0002C17D0012DAF
:1031B00008DCDA05801AD20F8019D207DBB200F0E2
:1031C00055FBF8BDDA05801A012340001B06C01824
:1031D00080185A428018CA0F1043490007E0490876
:1031E000C2071143DA05801A80194008801800F0E0
:1031F00035FBF8BD61000122511A001BF7E70122DF
:10320000D2075140AAE70122D2075040A6E7024662
:1032100070B54A40D30FDB0740002DD04A002AD0BA
:10322000010E140E000212020919400A520A8418F3
:10323000E50104465443000A120A2E045043A4191F
:103240004219200CC543AA18120C0125AD03521CCB
:10325000521912047F39240400D0521C104301D4A7
:103260004000491EC2B20C06C0092018401C40088C
:10327000802A02D003E0002070BD400840000029F1
:1032800000DA0020184370BD70B502464A40D50FE1
:1032900040004A00ED0740085208002814D0002AD8
:1032A00012D0C40DD30D41020120C0055202490ABB
:1032B000520AE41A091812187D34914201D3641C91
:1032C00000E04900002C01DA002070BD002391428B
:1032D00001D3891A0343400849000028F7D1002987
:1032E0000AD0914202D10121C90705E0914201D2E1
:1032F000012101E00121C943E005C018401900F097
:10330000ADFA70BDF0B507460846584087B0C00F0B
:10331000049048000E46590040084908BC1A8841EC
:1033200005D2384631461E4617460B46024658001F
:10333000400810434CD0300D039040055900400D1B
:10334000490D0590401A0290402872DA18030121B5
:10335000000B09050843019004980092002805D04D
:103360000199524200208841009201900298402128
:103370000A1A0199009800F03DFA05460C466B4682
:1033800007CB00F058FAC0197141039A0E0D0023C3
:10339000D71756401A467A40164344D0049A002A5A
:1033A0002DD0029A012A039A15DC1205C01A914108
:1033B00001263605001C7141D20F059ED2070093ED
:1033C000019202962A46234600F096FA07B0F0BD15
:1033D00038463146FAE71605224A0F46B218C01A97
:1033E000B74101210905001C4F4100187F411146DA
:1033F00018187941E20F10436D19644113E0E20798
:103400006D0815436408C2071443039A0126120588
:10341000C01A91413605001C7141CE074008304367
:103420004908C01851412A46234600F058FACDE712
:10343000FFE7049801224000C117121A00238B41B4
:1034400004983146C417381AA141EEE730B401247C
:10345000E407634030BC55E730B40124E407614021
:1034600030BC4FE70000E0FFF0B51FB488B00B9907
:103470000998002448400999C00F4900490809915A
:10348000C0070B990090490049080B9109990898C9
:10349000A64608431CD00B990A98084318D00998EF
:1034A00001244000420D4800410D09982405000305
:1034B000000B204309900B980003000B20430B9056
:1034C00050181C494018002201901446104605E08F
:1034D000002001460DB0F0BD032801DA034600E0EC
:1034E00003239C46C11A0AAE0AE05F0008ADED5BFB
:1034F0004F00F75B7D430027AA187C41491C5B1EE7
:103500006145F2DD410004AB5A522104120C0A431A
:10351000240C401C0828DFDB0198029000997046BB
:1035200001910090059B049A0799069800F0E4F930
:10353000D0E700000DFCFFFFF0B50C465C4085B005
:10354000E40FE40703944C000026640859009446F5
:10355000490802460296224321D062460A431ED001
:103560006200570D4A000E032303550D0124024645
:103570002C492405781B1B0B360B4018234326438C
:10358000614600901C46501AB44103D30098401C79
:10359000009002E0921800985B41002803DA0020B6
:1035A000014605B0F0BD0020012109050746864609
:1035B00011E064461D46141BB54106D36546521BF7
:1035C000B341744607430C43A646CD07400849085B
:1035D000284392185B4105460D43EAD11046184333
:1035E00013D06046194650407140084306D06046EB
:1035F000101AB34106D20122002306E00022012363
:10360000DB0702E00122D243531000987446010503
:10361000381C6141029C039D0019694100F05FF96B
:10362000BFE70000FD03000010B5002296231146FD
:1036300000F01CF910BD00000EB5C217C10F5040BC
:10364000CA0740180021054B0293019200910A46D7
:103650000B4600F051F903B000BD00003304000038
:10366000C20F410040020123400ADB05D207090EC8
:10367000C0187F2901DA00207047962903DC9623C1
:10368000591AC84001E096398840002AF4D04042D7
:103690007047000070B5CD0F4A0009030123090BE4
:1036A0001B0519430B4BED070024520D9A4201DA1A
:1036B000002070BD074B34339A4203DC9A1A00F0A5
:1036C000A9F802E00449511888402C43F1D0404247
:1036D00070BD0000FF030000CDFBFFFFC20FD2074B
:1036E000400040080BD0C10D0723DB01C918400280
:1036F0000905400A1143C2084007114370470020E2
:103700000146704770B50446002903D000202022EE
:10371000012310E0002801D00020C043C046C0466D
:103720000DE02546D5408D4205D30D469540641BDE
:103730001D46954040191546521E002DF1DC2146CC
:1037400070BD000070B5002504462E46002911D03A
:10375000002C01DA01254442002901DA0126494200
:103760002046FFF7CFFFB54200D04042002D00D0E9
:10377000494270BD002C02DA0121C90702E0002C89
:1037800000DD03490846C046C046214670BD000022
:10379000FFFFFF7FF0B51FB40646002082B005464C
:1037A0004024019100901BE0019922460F463046CB
:1037B00000F030F8049A059B801A994110D3104606
:1037C0001946224600F016F8361A8F410197224614
:1037D00001200021009F00F00DF838184D410090A5
:1037E0002046641E0028DFDC019B009829463246F3
:1037F00007B0F0BD10B5202A04DB0146203A914005
:10380000002010BD914020239C1A0346E340194339
:10381000904010BD10B5202A04DB0846203AD04065
:10382000002110BD0B46D340D0402024A21A914065
:103830000843194610BD10B5202A06DBCB170846F1
:10384000203A1041C1170B4306E00B461341D0400C
:103850002024A21A91400843194610BD002904DA19
:10386000401C490001D140084000704770B400245A
:10387000050C05D11024000402D1002921D0112407
:10388000050E01D100020834050F01D10001241DED
:10389000850F01D18000A41C002801DB4000641CBE
:1038A000002908D020252E1B0D46F540A14000D050
:1038B00001212943084301061B1B000ADB1D02D519
:1038C000002070BC7047DB05181880180029F8DA52
:1038D000401C4900F5D170BC40084000704710B54D
:1038E000002B08DA0024401C614192185B411A4306
:1038F00001D14008400010BDF0B51FB482B00546AC
:103900000C0003D0084606F097FC02E006F094FC99
:1039100020300246009021462846FFF76BFF049BAB
:10392000059A04460F4618431143084314D018461D
:1039300010431BD0009840210A1A18460599FFF73A
:1039400069FF05460E46009A05990498FFF752FF55
:10395000084305D0012004E02046394607B0F0BDF9
:103960000020C11705430E432C43374300990E989E
:103970006305401A7905E40A00220C43FD0A0A3067
:1039800002D500200146E9E70105101969410C9CA8
:103990000D9D00196941FFF7A2FFDFE71CB509483B
:1039A00000900948019005460126009C05E0E36867
:1039B00007CC33430C3C98471034AC42F7D3FFF7A5
:1039C0006DFB0000D4AD0008F4AD000802490140D1
:1039D000474801607047C046FF0F00004449086037
:1039E0007047C046044A002902D01168014301E033
:1039F000116881431160704704080240F0B581B03E
:103A000085000F24E6431E4B08280DD35F680097FE
:103A1000203DAE40009F37400097AA40009D1543CF
:103A20000095009A5A600BE01F680097AE40009F17
:103A300037400097AA40009D15430095009A1A60F0
:103A40008A0008290DD8196A0091111F8C40009A2C
:103A5000A2430092884000990143009100981862A7
:103A60000CE0596A0091243A94400099A1430091D6
:103A700090400099014300910098586201B0F0BD58
:103A800010080240411E884147490A6801239A43B1
:103A9000101808607047C04603490A68034B13407A
:103AA00003430B607047C0462C0802400000FFFF34
:103AB000411E8841C0030121C903034A13688B4397
:103AC000181810607047C046280802400849096865
:103AD0000840411E8841704780000149405A7047A4
:103AE00038080240024909680840411E8841704771
:103AF0000008024080B500F041FE80BD70B581B085
:103B00000022009228490B6800930623009C9C43E6
:103B100000948369047864001C43009B2343009352
:103B2000009B0B600B6A0093009B00920F22130511
:103B3000046925011D4043691C4E1E40A3B2334356
:103B40005B19C468A5B21D43120623021340EA188C
:103B500083689CB21443009A22431B0C1B07134337
:103B60000093009A0A62CA690092114A009B1340AE
:103B70000093FF22D243436A1B029A18C3695B1E5B
:103B8000046A2401103C1C43144342682243806AA7
:103B90000003084BC0181043009A0243009200989B
:103BA000C86101B070BDC04608080240FFFF0F00A9
:103BB000FFFF030000F0FFFFB0B590B001242046E6
:103BC000214601F0FFFC01AD284600F0C3FD0320B3
:103BD00002900194C548294600F056FD284600F0A1
:103BE000B9FD05A80025057018490A680C23134380
:103BF0000B600B9506950F940E940D940C941F2159
:103C0000C9030A910991FFF779FF0A222846214644
:103C1000FFF7F4FE02202146FFF7E4FE204621468E
:103C2000FFF7E0FE6846847044700821017001F0DF
:103C300087FB2046FFF73CFF2046FFF723FFA0024B
:103C4000FFF744FF0028FAD010B0B0BD0C080240C6
:103C500080B511200001FFF7B9FE0548FFF71CFFF2
:103C60000448FFF719FF0120FFF722FF80BDC0467F
:103C7000A1A50000F2F00000F0B581B061486249F2
:103C800007252A46FFF73DFA60480088102800D231
:103C9000A5E000270C205F4C3E46205C372810D062
:103CA000332822D13819807B31281ED1E8B25549FA
:103CB000081806226149FFF724FAAD1D00F092F9B9
:103CC00053E03819807B31280FD1E8B24D490818EC
:103CD000062251A1FFF715FA514800885149884240
:103CE00050D200204A4B50494FE0A07B217B37291E
:103CF00010D132280ED1E8B242490818062251A14B
:103D0000FFF7FFF9464800885049884217D96420D8
:103D1000454A16E0382928D1312826D1E8B2394958
:103D2000081806224649FFF7ECF940488079C10996
:103D3000022003F029F9AD1D05F0A0F915E03A4A7B
:103D400090783A49AD1D50715079C872C87A0421F3
:103D50005170FFF769FC3649FFF759FA3549FFF70B
:103D6000FDF9FFF77DFC3A490880042E39D2761C14
:103D7000381DC7B238460C3024490988C91E88420C
:103D80008BDB37E028498878214BAD1D0871087915
:103D9000591C264CE2890A400243E281E08918421C
:103DA00016D0E0891840FFF73FFC2149FFF72FFAB2
:103DB0002049FFF7D3F9FFF753FC1F490880184942
:103DC00009888142134CD0D2032017494870CCE7B0
:103DD000002019490880124800880E4CC5E70620CB
:103DE0000AE0E9B207480A18531E0D221A7006F0BD
:103DF0002BF804E0E8B2401E0D21024A115401B034
:103E0000F0BDC046B105002090AD000804020020BE
:103E1000FF7F0000B1040020372031203020000057
:103E2000C2010020E903000098010020D401002015
:103E30000000204200007A44AE030020EDAA0008F2
:103E4000F4AA000837203220302000008713000039
:103E5000AA030020244800248460C460012739029A
:103E60005C4800F086FC5948214603F09FFBCE4D8C
:103E700028793F26304080302871CA48C17AEA78D4
:103E8000324089015118E970017BE9714078A978C5
:103E9000314080010818A87015481649224603F0E1
:103EA000ADFDEFF3108072B6F9034A4800F061FCF3
:103EB0000D48046044601048092101700F48302209
:103EC000294600F0C5FA0E4806700E48E949082256
:103ED00000F0BEFABFF34F8F0B480C490160BFF3EF
:103EE0004F8F00BFFDE7C04628040040003002406D
:103EF0000038014000020010CB010020B0FD000896
:103F0000CC010020F8FF00080CED00E00400FA05E9
:103F1000B0B52C4D296808882B4A137898420AD0EE
:103F20002A4B2B4CA04202D100241C6301E05864B0
:103F3000440810701C63002842D0CA78002A0AD0B6
:103F4000521ECA70224988420AD00120010221482B
:103F500000F011FC04E0012001021E4800F009FC01
:103F600028688178002912D0491E81701A4801788A
:103F7000002925D1012404702202144D284621462F
:103F800003F063FA2846214603F010FB18E00F48BF
:103F90000024214603F00AFB0F4804702868001D26
:103FA00028600E480178491C01700D4A1278C9B288
:103FB000914205D10470AA480179FD220A4002719C
:103FC0000020B0BD000000207B0300200034014031
:103FD00010270000003002407A0300206003002018
:103FE00061030020B0B5A54CE07A002812D0E07A39
:103FF00001280ED10025E5729948C178F6220A40C1
:10400000C2709F488079C109042002F0BDFF964824
:104010008582B0BD0120E072994DA879C1090320C5
:1040200002F0B2FF9048808A1549884212D815489C
:104030000178E289002A00D11146CAB25200124B1F
:104040009A5AE281491CCAB2022A00D900210170A1
:10405000E089288128890D4940180521FFF772FB66
:104060000B49088002207E490856002802D428788F
:104070002073B0BD68787F2101402173B0BDC04678
:10408000B70B00008A03002090A7000848F4FFFF48
:104090007603002010B5724CE078FD210140E170FC
:1040A00070490A78F720104008706078C3069B0FAB
:1040B00000D010BDD30729D121790907F9D42349AC
:1040C00009886C4A12888A4202D3A1784906F0D541
:1040D0006A494A78032A05D04A78002A02D04A78E9
:1040E000042A1FD188784A79904202D3A0784006EA
:1040F000DFD50220487062488079C109032002F0B0
:1041000043FF6078FB210140617010BD56480023D9
:104110000370F62002400A7054480178FE220A40DB
:10412000027010BD4A78012A06D102224A70E321AA
:1041300008400830607010BD48780228B9D10020CE
:1041400048704F488079C1090220D8E7AA030020AF
:1041500080B54348C178FD220A40C27041490A78BF
:10416000F72313400B704178CA06920F00D080BD30
:10417000424A5378032BFAD05378042BF7D0537864
:10418000012B02D05378022BF1D100235370E3228C
:10419000114041703A488079C109022002F0F4FED2
:1041A00080BDC04698010020D4010020B0B52C4C41
:1041B000E078FD210140E1702A490A78F72010409B
:1041C00008706078C3069B0F00D0B0BDD30726D11E
:1041D00021794907F9D426490988264A12888A4252
:1041E00002D8A1784906F0D5234909780029ECD1F5
:1041F000224D6978032905D06978002902D06978B1
:10420000042918D11E488079C109032002F0BCFEA0
:10421000012068706078FB2101406170B0BD1248D8
:1042200000230370F62002400A7010480178FE2235
:104230000A400270B0BD6978012907D11048807921
:10424000C109022002F0A0FE0020E2E769780229FD
:10425000BBD101216970E321084010306070B0BD0E
:10426000CD010020CA010020E4020020220300202A
:10427000AE030020C2010020790300209801002035
:10428000D401002080B500F0C7FA80BD0D49086058
:104290007047C0460B4908607047C04605490A6828
:1042A0000240531E9A41C9680840411E884110408F
:1042B0007047C04604040140024909680840411E95
:1042C000884170471004014010B582791549002AD1
:1042D0001CD002684B6893434B600B6893430B60A0
:1042E00003790B431C6814431C600268CB6893433A
:1042F000CB608B6893438B60407910280DD1C868E0
:104300001043C86088681043886010BD02790A4372
:10431000006811688143116010BD084301681143B2
:10432000016010BD00040140F0B581B004462F4E7D
:104330002F4830602F4830601248201812498842B8
:1043400001D206201BE03420B0600B200504284673
:1043500000F052F804280ED1F06802273843F060CC
:104360003461F06840210143F160284600F044F8D0
:10437000F168B943F160F16880220A43F26001B04C
:10438000F0BDC0460000FFF70000FFFF13480168C2
:1043900080220A4302607047F0B581B0054680076D
:1043A00001D0062017E00C460C48001F34210160A4
:1043B00001277E03304600F01FF804280BD107497F
:1043C0000868384308602C60304600F015F8034A4E
:1043D0001168B943116001B0F0BDC0461020024021
:1043E000024803490160034901607047042002400C
:1043F00023016745AB89EFCD144A1168C90707D17E
:10440000116849070DD41168C90614D5032118E0B5
:104410000121002815D01368DB0704D0401EFAD113
:104420000FE002210DE01168490706D41168C906A2
:1044300005D5032104E0042103E0022100E004216A
:10444000401E002800D10721084670470C2002407A
:10445000F0B585B015460491244A029002402449E3
:104460008A4238D1FFF7BCFFE81C8008019030D0A9
:104470000024E04303902E460095042E324600D3DC
:104480000422012A00D80122A10002980818194B21
:10449000984222D8A94203990ED0D2000023049F4B
:1044A000039DFF2199408D433978994029437F1C12
:1044B00008339A420D46F4D1FFF76EFF04280ED15F
:1044C0000498001D0490361F641C01988442009DCE
:1044D000D3D1042704E0062704E0062700E00746BE
:1044E000FFF754FF384605B0F0BDC0460380FFFF1C
:1044F00000800008FFFF0008B0B5604C012801D023
:10450000234600E05E4B002800D15E4B03220A40A8
:10451000A3421CD0F84CA3420ED05A4CA34221D146
:10452000FC23194007238B408000164C05599D43FE
:1045300005518A40001912E08000124BC458C0187F
:10454000032910D80722944304600A4607E0072095
:1045500000020C494B6883434B60081D120201683E
:1045600011430160B0BD70239C43046012010468D4
:10457000144304600829F5D1016899430160402281
:10458000EDE7C04608330240F0B587B003AC2046E3
:1045900000F0E0F8002006900746019002250495FF
:1045A000012603963548214600F06EF806970395DC
:1045B0003248214600F068F807200690402002901B
:1045C0000390CD48214600F05FF80C2006900420AF
:1045D00003902C48214600F057F80B2706970495C6
:1045E0000396C548214600F04FF8069704950396B8
:1045F000C148214600F048F8069704950395BE4847
:104600000546214600F040F80496F00303901D4F44
:104610003846214600F038F804968020039028465A
:10462000214600F031F804963002039038462146C6
:1046300000F02AF8059620200390019D0495384645
:10464000214600F021F80596102003900495384685
:10465000214600F019F80596082003900495A64815
:10466000214600F011F8059602980390049538460B
:10467000214600F009F807B0F0BDC0460032024004
:104680000031024000300240F0B586B00490059140
:10469000096800295AD000231D461E4602910120B8
:1046A0000446B44021424AD005994F68022F0ADDE2
:1046B000122F0CD0112F2AD0032F2FD10599C968A2
:1046C0000F2904D12AE0012F21D0022F26D1310752
:1046D000019001D5242000E020200090049A105879
:1046E00003901C222A400F21914003988843039095
:1046F0000599C968914003980143049A00981150A4
:10470000122F01980AD8B8401149084206D038093A
:10471000B040049A5168A1430143516003210F4006
:104720009F409940049C2068884338432060059846
:1047300080689840E2688A430243E2600299761CEE
:104740000846F0409B1C2D1D0028A8D106B0F0BDE6
:10475000040006000F21034A00230CC003604160DF
:104760007047C046FFFF000000690840411E8841B5
:1047700070478162704781617047000070B51020FA
:10478000FFF7B0F9002836D000242046FFF7A4F93F
:104790001D4908801D48012101702046FFF79CF942
:1047A0001B4DA9680818A860A888401CA880594E0D
:1047B0003078F72101403170A888642815D3AC8087
:1047C000A8686421FEF79EFF6880AC604B48008EAD
:1047D0000B280AD3F078400607D50E480188491CFB
:1047E000018069884268511841601020FFF7F6F88F
:1047F0000120FFF75DF94020FFF774F9002802D08F
:104800004020FFF7EBF870BD5A0300205903002049
:104810003802002070020020B0B52020FFF74CFDC8
:10482000354C00283ED02020FFF734FDF04DE878CD
:10483000002835D010212046FFF796FF002816D01B
:1048400008212046FFF790FF2E490978884203D1BE
:104850002B480078002823D108212046FFF784FF49
:1048600029490A8800280CD0521C01200FE0244856
:104870000121017008212046FFF776FF21490870C9
:104880000EE00020C043002A02D00A88521E0A808F
:104890001E490A68101808601D480178491C0170FB
:1048A0000020E8700220FFF707FD002822D0012039
:1048B00001032046FFF758FF002802D0D148807836
:1048C00007E0CB4800214172CE498A78CF201040C2
:1048D000887000070BD410480078002803D1C54821
:1048E000C07A04F0DBF8C348407804F001FD0220F0
:1048F000FFF7CCFCB0BDC04600310240E40200200E
:104900001802002019020020C201002044020020E9
:104910001C020020CD0100202402002070B5184C9C
:104920000221204602F00AFD204602F05DFE154DF0
:104930002880204602F04CFE134E3080308800283C
:1049400003D03088114900F001FF2888002810D0DA
:10495000204602F049FE2880204602F039FE3080D1
:1049600028883188401A0A490860084900F0EEFE9C
:1049700070BD0848002101800748016070BDC04635
:10498000002C0140800200201A0200206C00002050
:1049900030020020C00100200802002070B5944CB5
:1049A000E07A401CE072207B401C2073607B401C3E
:1049B0006073E089401CE081208B401C20832079BB
:1049C000401C20716079401C6071A07F401CA07762
:1049D000A079401CA0718748C17A002901D000212C
:1049E00005E0A18A844A914202D8A18A491CA18289
:1049F00082490A78824D002A0AD0228C521C2284D5
:104A00006A1C238C934205D900220A70228401E09B
:104A100000212184E178FF2902D0E178491CE1706E
:104A2000E179132902D8E179491CE171E17A05297C
:104A300006D30021E172C5490A78402313430B7065
:104A4000217B0A2906D300212173C0490A788023DB
:104A500013430B70617B64290CD300216173BB4A43
:104A6000537801261E435670D278520601D5218E06
:104A7000491C2186E189962906D30021E181B349A9
:104A80004A78022313434B70618D00290AD0618D4F
:104A9000491E6185618D002904D15B490A78FB2399
:104AA00013400B702621425C012A0CD1A26B521CD0
:104AB000A263A26B554B9A4207D300224254405C3A
:104AC0009F49887201E00020A063A04EB078C10623
:104AD0000DD4617A491C6172617A332907D31021A0
:104AE0000843B0704A48002101604160B078C107B6
:104AF00020D0E18C491CE184FF212C31E28C92080A
:104B00004B2A0CD3434A00231370434A1380434A71
:104B10001370434A434B138004221043B070963104
:104B2000E28C8A4206D90021E1846184FC2108409C
:104B3000801CB0707078C10610D4010721D48106A2
:104B400036D5618B491C6183618BC82930D3002124
:104B50006183C7210840707007200CE0618B491CFD
:104B60006183618BC9087D2922D300216183EF21F4
:104B7000084070700320F1498979C90902F004FAEC
:104B800016E0618B491C6183618BC9087D290FD3B5
:104B900000216183E72108407070234801780320D9
:104BA0000329E8D118490A78FD2313400B70E2E786
:104BB0001E48007800280BD0208A401C2082208AC2
:104BC000A84205D90020208230782021014331708D
:104BD0003078C1060BD4618A491C6182618A144A0B
:104BE000914204D30021618210210843307070BDCE
:104BF000E402002098010020B70B00008A02002088
:104C000087130000CD01002022030020881300003C
:104C1000300400403A0000203600002078030020D5
:104C200038000020FFFF000079030020CA010020A7
:104C300010270000F0B587B00D4606460124204637
:104C4000214600F0BFFC03AF3846FFF783FD059413
:104C5000039530463946FFF717FD04212046FFF73C
:104C60004BFC01A884715B49818020210191FFF7F1
:104C70002BFB6846847044700221017000F060FBD9
:104C800007B0F0BD014802490160704700300040A4
:104C9000AAAA0000F0B581B0264801783C2420463D
:104CA0000091484324490A78831824490B60A34D96
:104CB000A978EE783F273E40394061438919214E5B
:104CC00031602E79687938403E40664334181E487A
:104CD00004600120285600280AD4974881787F2252
:104CE0000A408270C178FE220A40C27001B0F0BD55
:104CF0001846009B172BF9D83B2AF7D8F64AA14251
:104D000003D29378814204D90CE008D99378884281
:104D100001D2A04206D2802003439370E6E7937845
:104D20008842F8D07F2003409370D078FE21014064
:104D3000D170DBE74A030020580300208C030020D9
:104D4000D40100209003002094030020CD01002016
:104D500000280BD001BA0948016000214218435CC9
:104D60005B001371491C0429F8D17047044801689D
:104D70004068024A116050607047C04650030020EE
:104D800018000020F0B587B00D46064601242046E5
:104D9000214600F017FC03AF3846FFF7DBFC059413
:104DA000039530463946FFF76FFC00200721FFF7D7
:104DB000A3FB01A884710749818002250195FFF7B3
:104DC00083FA6846847003214170057000F0B8FAD8
:104DD00007B0F0BD04100000F0B581B05148524951
:104DE0001E242246FEF7ADF9002815D04F484E4943
:104DF0001A22FEF7A6F900282BD04D484A491D2259
:104E0000FEF79FF9002800D08AE04A48007804287D
:104E100000D185E0042581E04648007800287FD055
:104E2000042801D001286FD1A5480025C562A948F2
:104E300003210170A948007B1E2856D1A4480021F7
:104E400001803F4801883F4848436421FEF75AFCEF
:104E50004FE038480078012862D09F4C032858D191
:104E6000E0781021014054D1964DA879C10907205E
:104E700002F08AF8A978C02001401731A970E978BA
:104E80000140E97029790140891D29716979014042
:104E9000697168787F2630406870687880210140A9
:104EA00014316970A9783F20014022228B4FB954F8
:104EB000E97801402322B954297901402422B954C8
:104EC00069790140252039546878C0093874A07880
:104ED0003040A070687830407874FFF7DBFE022025
:104EE0002056002812D4287812E015480480F320B8
:104EF000400015490D60154A158048600120C10326
:104F00001348FFF738FC09E0002507E068783040D7
:104F10003873E078EF210140E17001250548057004
:104F200001B0F0BD0EA90008B1040020CEA9000810
:104F300039AA00086C020020CD010020D401002015
:104F40006403002054060000280400402C020020C6
:104F500000300240F0B581B059480024C462594F76
:104F600064253D70584838813889584940180521D2
:104F7000FEF7E8FB56490880564AD4809078FC2119
:104F8000014091705448C17810220A43C270F97AE6
:104F9000632904D851494A78042A00D14C70FD7223
:104FA000F98949044E4B04D04C494A78032A00D170
:104FB0004C70591CFA890A40FA81BA78C0210A401B
:104FC0001732BA70FA780A40FA703A790A40921D9C
:104FD0003A717A790A407A7179787F26314079700E
:104FE00079788022114014317970B9791143B971FF
:104FF000817831408170F87A1C46FEF715FB3949FB
:10500000FEF705F93849FEF7A9F8FEF729FB3749FD
:105010000880FD89F8892040FEF706FB3149FEF73C
:10502000F6F804463049FEF799F82D490D4200D0B4
:1050300004462046FEF714FB2D49088005F078F859
:105040003978264801733989C181F97A4171F98922
:105050000171BA783F210A402223C254FA780A40EB
:105060002323C2543A790A402423C2547A790A404D
:10507000252142547978C909017479783140417405
:10508000B979C909817404F0A9F91A480D21C171CF
:1050900065218171722242716F2303717423C37081
:1050A0007323837041700270082104F0CDFE094A19
:1050B0009078F3210140081D907001B0F0BDC0460A
:1050C000E4020020D40100204416000048F4FFFF51
:1050D0007603002024020020CD010020980100204A
:1050E000FF7F00000000204200007A44AA03002055
:1050F000AE030020B105002070B56B4C6B4D2A78D3
:10510000501E012864D82188642961D86848632921
:1051100007D862290B4600D362239B1C2380622997
:1051200012D36749012A00D0E03103680B400360C5
:10513000614900230B70012A01D0634900E06149F5
:1051400002680A43026043E099B24900594B595A38
:1051500019239B01591A584B1E78012A1BD1012E85
:1051600012D002687026B2430260026860261643BD
:1051700006600722120306689643066001221A7031
:1051800012030368134303601C3889B202F0DCFB8E
:105190004A4801211BE0022E13D0072212030668A1
:1051A00096430660032252030668164306600268AF
:1051B0007026B243026002221A7002681023134361
:1051C00003601C3889B202F0D1FB3C480221017017
:1051D0002878002800D070BD3C4800780007344D86
:1051E0004AD42088811E8AB2622A43D82180500086
:1051F0003049085A19218901091A2F4802782F4B82
:105200001B78012B1AD1012A12D02A6870239A43E5
:105210002A602A68602313432B60072212032B683D
:1052200093432B600122027010032A6802432A6014
:1052300028461C3889B202F087FB1AE0022A13D0F4
:10524000072212032B6893432B60032252032B681F
:1052500013432B602A6870239A432A60022202704B
:105260002868102202432A6028461C3889B202F0BE
:105270007DFB20880128AED80720000329688143E0
:1052800029600120000329680143296028687021F2
:105290008843286000202080074908702868102172
:1052A0000143296070BDC0464A0200208B020020E5
:1052B0001C040040A6A70008480200208903002023
:1052C0001F1FFFFFA080000080A00000CA01002077
:1052D0007047000070B584B001A801258571174999
:1052E000818069020191FEF7EFFF03ACA5700326F0
:1052F00066700D202070204600F022F8A5706670C0
:1053000007202070204600F01BF8A5700220607076
:1053100008202070204600F013F8A5706570042066
:105320002070204600F00CF8A570657005202070F4
:10533000204600F005F804B070BDC046041000001F
:10534000B0B5002141564278002905D403230C460C
:105350009C43164BE31803E00C230B40124C1B1923
:105360008C07E40E9207120EA240FF25A5401C6890
:10537000AC4314431C608078002808D0002912D464
:105380001F2001400120884009490860B0BD002964
:1053900009D41F2001400120884006490860BFF35E
:1053A0004F8FBFF36F8FB0BD14ED00E000E400E05D
:1053B00000E100E080E100E0F0B581B08020FEF780
:1053C0006DFF002830D080263046FEF75FFF174F74
:1053D0000024BC60FC60164D40212846FFF7C9F947
:1053E00028463146FFF7C5F9012631022846FFF766
:1053F000C0F91048214602F0D9F8F1032846FFF71A
:10540000B8F93C607C600C48092101700B480C49DC
:105410003022FFF71DF80B483F2101700A480B4965
:105420000822FFF715F8FEE701B0F0BD28040040A0
:105430000030024000340140CB010020B0FD0008E4
:10544000D4010020CC010020F8FF0008C201002098
:1054500010B584B008200124214600F0B3F801A85B
:1054600084710B49818080210191FEF72DFF03A8F3
:105470008470002141700170FFF762FF0920400134
:1054800000F008F8204600F00DF804B010BDC0464A
:10549000040C00000F214901084A13688B430343A1
:1054A00013607047401E41424141080103490A68A8
:1054B00010239A43101808607047C04600700040DF
:1054C00010B513480078052821D8C04678440079E3
:1054D000400087440A020E0602120E480F491124AA
:1054E0000EE00C480E491A240AE00A480E49182416
:1054F00006E008480B49092402E00648064914243E
:105500002246FDF7FEFD0348214604F09DFC10BD38
:105510007C030020B105002050AC000830AC00082E
:1055200014AC000844AC0008F8AB00080948016856
:10553000094A126891420AD001221302074AD3187D
:10554000994200D311464A1C02600878FFE7C0B2B6
:105550007047C046A4030020A0030020B103002030
:1055600003490A6807239A4302430A607047C0460A
:105570002410024010B5072000030124214600F04A
:1055800021F82046214600F01DF8E003214600F0F6
:1055900019F82046214600F015F82003214600F0B6
:1055A00005F80320FDF7A7FD10BD0000044A0029FF
:1055B00002D01168014301E0116881431160704716
:1055C00010100240044A002902D01168014301E092
:1055D00011688143116070471410024010B50446F1
:1055E00012490868800702D57D20000200E01048BB
:1055F00020600A68D20301D50E4820600A6852066E
:10560000520F0D4B9A5CD04060600A685205520FF1
:105610009A5C0346D340A360096A07220A4007A1A7
:10562000895CFEF76FF8E06010BDC04604100240D0
:105630000090D0030048E80196A700080102030487
:1056400006080A0C1020202020202020F0B581B070
:105650002F4900224A720A72CA718A71CA778A7700
:1056600001234B770B77CB768A764B760A76CA7511
:105670008B754A750B75CB748B744A740A74CA7334
:105680008B734B730B73CA728B724B710A71CB7035
:105690008B704B700A702124260100963F36072735
:1056A0003740B606760F1B498E5DFE401E40877858
:1056B0007F0804253D40C7787906C90F0901144CBD
:1056C0006118BC07E40FE400091949194478E5079B
:1056D000AD0F491905781D40495D7C40E4B2E409ED
:1056E0004C40A11B4F424F4116461946B9438457BF
:1056F000650069188155002C1F4600DA1746761C94
:10570000042EF2D1009E761EC7D801B0F0BDC0466F
:105710004C02002050030020B0B50346C40B00200B
:10572000084DAC420CD1002A0AD00748C01A002408
:10573000A04205D01D5D0D55641CA242F8D1104653
:10574000B0BDC0460110000000000108B0B50C4615
:1057500005465A482A185A498A4207D225815B4889
:1057600000210180FF200430E080B0BDA279042A2E
:1057700000D9A2E07A4412795200974402119E04A3
:105780001D000120F0E74F484021FEF7EDFF002803
:105790001FD04D48C1788A063DD44C4A158043E05D
:1057A0002581AAB21018884200D386E00320A07198
:1057B000E079401CE071B0BD42484021FEF7D4FFC3
:1057C000002817D04048C1788A0631D43F4A158056
:1057D00037E0C72D39D83C48C17820220A43C2702F
:1057E0003A4801884D190580E079022834D3401EDB
:1057F000E07131E0C72D44D83348C17820220A43F4
:10580000C270324801884D190580E07902283FD3E3
:10581000401EE0713CE02D4A13885D191580E27945
:10582000022A01D3521EE271DF221140C17013E03F
:10583000264A13885D191580E279022A01D3521E87
:10584000E271DF221140C17022E0204805801E482D
:10585000C178DF220A40C270E079A9B21C4A9142A5
:1058600003D9022801D300207EE7411CE1714000EA
:1058700020180581C8B253281FD100206080042061
:105880001AE0124805801048C178DF220A40C27031
:10589000A8B20F49884203D92581FF20023063E76F
:1058A000E079411CE171400020180581C8B28128CF
:1058B00003D1002060800520A071B0BD28F1FFFF5A
:1058C000B104000000310240CD0100208802002018
:1058D000B6030000F0B5A9B09348944907273A46AB
:1058E000FDF70FFC924D0020287092490988162977
:1058F00001D200F014FD072702468F4BD3181C7D00
:10590000323C062C01D900F0D6FC64007C44A4880B
:105910006400A74406003800D0042500D0045900D4
:1059200092000422854C22709A7D332A00D1D7E060
:10593000322A00D1C2E0312A01D000F0F0FCF8B2E6
:1059400079490E18D87D322800D05FE1092230460F
:105950007B4C2146FDF7D5FB202070720A378AE385
:10596000042076490870987D312801D000F0D7FCDA
:10597000F8B26D4908187349897C012900D09AE072
:105980000B22714C61E104226C4C22709A7D313AF9
:10599000062A01D900F0C3FC5200C0467A4492881E
:1059A0005200974406009201570173014801AF016C
:1059B000CC01F8B25C4908186249C97A012900D0C3
:1059C00045E20B22614C40E13C46DB7D1E463A3EFF
:1059D00016320A271097FF43BE4247D80420574982
:1059E00008705548805C342800D1E1E02746312812
:1059F00001D000F094FCF9B25548421D4A48425487
:105A00004018544C230EC371230C8371230A437135
:105A10000471130EC370130C8370120A42704E4A45
:105A20001278D30700D0F2E1930700D546E2891D32
:105A3000520700D5CEE33022CDE304223F4C227042
:105A40009A7D372A00D19DE0332A58D0312A01D0DF
:105A500000F031FCF8B2344908182621394A515C6B
:105A6000012900D0CAE10B223C4CEEE00525334E63
:105A70003570314DAA5C312A00D080E0313B052BD6
:105A8000274600D97CE02A4D5B00C0467B449B88BA
:105A90005B009F4405000803F202FD02E202460398
:105AA000F8B2214E301809222D4C2146FDF729FB72
:105AB0002448807801E30C222A4CD8E2D87D302893
:105AC00001D000F02CFCF8B217490E18092230461C
:105AD000254C2146FDF715FB202030720937CAE21C
:105AE000184BDA7F002A00D18BE1DA7F012A00D03F
:105AF000E1E3F8B20C4908180B221C4CA5E012A8EF
:105B00005A21FDF7E6FA1A4881797F2008400328D8
:105B100000D997E2044D40007844808840008744D3
:105B200029006F02D001FB01B105002090AD0008F3
:105B30008803002004020020B10400209803002004
:105B4000D8AC00089801002050AD000844AD000812
:105B50003220312030203020CA0100205CAD000806
:105B60009CAC0008F4AC000890AC000868AD0008DC
:105B7000D4010020FF230093019302934DE22746B6
:105B8000E24D98E3F8B2E24E30180622E14C21468D
:105B9000FDF7B7FABF1DF8B28019411E20220A7026
:105BA000801EFB4989797F220A403032027062E20E
:105BB000F84840788000F849085841781091C17839
:105BC0000F9181780E91437902798679C779119086
:105BD0000078E5B2ED494855EC484019EA4DC771E7
:105BE00027468671027143710E9A82700F9AC270B5
:105BF000109A42700837F8B24018411E20220A70ED
:105C0000801EE4494978303101704DE3E349080EC4
:105C1000F071E34A32703171100EF070100CB070F8
:105C2000100A7070080CB071080A70712020F071B1
:105C30000837DCA0D5E2F8B2D4490818D549097C68
:105C4000012900D0E5E00B22D94C2146FDF759FA95
:105C50000B3710E2FAB23324CC4EB454B5182023DB
:105C6000EB713022AA716B712A71EB70AC706B70A2
:105C7000C84DEC89092C00D9CEE00837F8B280195C
:105C8000411E0B70801EE989303109E3119841787B
:105C90001091C1780F9181780E9143790479C6797A
:105CA0003D4687790178E8B2B84A115410188771D7
:105CB0002F46B54DC671047143710E9981700F99CD
:105CC000C170109941700837EEE2F8B23321AF4C41
:105CD000215422182021D1713020907151711071FE
:105CE000D170322393705170AA4E327B092A00D9A9
:105CF000B0E00837F8B20019421E1170801E317BE7
:105D0000303155E2F8B23321A04C21542218202121
:105D1000D1713020907151711071D1703623937010
:105D200051709C4E727C092A00D9ADE00837F8B258
:105D30000019421E1170801E717C303147E2F8B2AA
:105D4000924C20181A229B49FDF7DBF91A3710975D
:105D5000F8B20019411E20220A700246133A22238B
:105D60008C4FFC5CCD214C43E40A30341470FB5C56
:105D70000246103A23243D5D4D43ED0A303515703F
:105D80000A465A43D50A0A22119255435D1B302315
:105D90001D430646123E35703D5D06460A3E2424EC
:105DA0003F5D4F43FF0A303737700E466E43F60AA9
:105DB000119A5643AD1B1D4306460F3E3570754A7A
:105DC000155DC61F2524175D4F43FF0A3037377016
:105DD000109F0E466E43F60A119A5643AD1B1D43A3
:105DE000861F09380570684D6A48005D4143C90A3D
:105DF0005143401A184330706E48F2E10C226E4C49
:105E000035E1F8B2614908180C226C4C2FE13121C0
:105E100055E00C226A4C2AE1EE892C46ED89E48992
:105E2000632E00D999E10937F8B258494018411E4C
:105E30000B70644E7543E90C3031C31E1970664314
:105E4000F10C0A234B43E11A1143801E28E20C2275
:105E50005D4C0CE1327B632A00D99DE10937FAB22F
:105E60004A4BD218531E1970D11E337BCD24634385
:105E7000DB0A30330B70317B4C43E30A0A245C436A
:105E8000091B0143901E93E1727C632A00D992E1C1
:105E90000937FAB23D4BD218531E1970D11E737CCC
:105EA000CD246343DB0A30330B70717C4C43E30A2F
:105EB0000A245C43091B0143901E88E13221817151
:105EC0008BE1334AD0691090D169D369D469156ADE
:105ED000166A3846176A126AD2B23F0AFFB2360C07
:105EE000F6B22D0EE4B21B0ADBB2090CC9B2009166
:105EF000019302940395254D049605970746069253
:105F00001098030E12A8592130A289E088030020BE
:105F1000B1050020FBAA00081D48C1690F91C169A5
:105F20000E91C1690D91C1690C91046A066A036AF8
:105F3000026A456A1097476A416A406AC0B2090A14
:105F4000C9B23F0CFFB2089709910A902F0ED1B247
:105F5000180AC0B2320CD2B2230E0C9CE4B20D9DD2
:105F60002D0AEDB20E9E360CF6B200960195FD4D4F
:105F700002940393049205AA83C2109F0F98030E04
:105F800012A85921FC4A4BE088030020B1050020EB
:105F9000D40100209801002004000020302030208F
:105FA000322031203220312030203020000000000B
:105FB00074AD000874AC000804AD000814AD00080E
:105FC00024AD0008CDCC0000E4AC0008382033201C
:105FD000302022253032583A253032583A25303296
:105FE000583A253032582C253032583A253032581C
:105FF0003A253032583A253032582220000000002D
:10600000DC4BD869D969DA69DB69DBB2120AD2B232
:10601000090CC9B200AC0EC4030E12A85921D74A0C
:1060200004F0EEF8F8B22E183D4612AF3846FDF7F0
:106030005BF80446304639462F462246FDF761F8A4
:106040002F1930E1FF2300930193029312A85921E5
:10605000CA4A04F0D5F8C34DE4E7F8B2C1490818BC
:10606000C7498979012900D0BDE00C22C74C2146DF
:10607000FDF747F80C37119416E1F8B2B94E301815
:106080000922C44C2146FDF73CF8BD48007914E0D4
:10609000F8B2B44E30180922BD4C2146FDF731F854
:1060A000B748407909E0F8B2AE4E30180922BA4C30
:1060B0002146FDF726F8B248C078092808D80937E4
:1060C000F9B289194A1E202313703022104315E0BB
:1060D000632816D80A37F9B2A24A89184A1E202323
:1060E0001370C2B2CD235343DA0A3023109E5643B5
:1060F0001A43CD1E2A709C4D801B1843891E0870C0
:10610000B9E70B37F8B297494018411E20220A70B0
:10611000811E30220A70C11E0A70001F31210170D9
:10612000A9E7F8B28F4E30180922964C2146FCF7A9
:10613000E8FF93480089C1B209295BD80B37F9B24F
:1061400089194A1E20231370302210438B1E1870A9
:10615000C81E2E230370081F28E5ED087C2D64D887
:106160000A37F8B27F494018411E0B70011FA3087F
:10617000914E73435B0C30330B70814BD989DB89B3
:106180008C4C5C43E40C0A2565435B1B1343841E63
:1061900023708B08734379E00A37FAB2714BD21837
:1061A000531E1970911E0870D11E0870101F3121E6
:1061B0000170834815E00A37FAB26A4BD218531EB1
:1061C0001970911E0870D11E0870101F31210170C6
:1061D0007A4806E03322634B5A5408372021C171B4
:1061E0006EA0119060E00D22674C2146FCF789FFFC
:1061F0000D3740E7632969D80B37FAB2594BD218EB
:10620000531E20251D70D31E2E251D70CD234B43FC
:10621000D90A3023109E4E431943151F2970801B45
:106220001843911E087011943DE0604DAC424D4DF5
:1062300072D80B37F8B24019411E0B70411F504CF9
:10624000E389DB085A4D6B431B0D30330B70E38938
:10625000E189E489574D6543ED0C0A266E43A41B82
:106260001443851E2C70DC08514D6C43240D7D2594
:10627000ED0065435B1B9BB2292424015C43230C86
:106280001343041F23708B084B4C63435B0C642443
:106290005C43091B89B267234B43990A1143C01E13
:1062A000017041481190304DF8B280082C284BD82D
:1062B0002E48018828782E4A127810182870C2B209
:1062C0000B46153B93422ADDFFF717FB0C37FAB25A
:1062D000244BD218531E20251D70D31E2E251D7051
:1062E000551F29234B431B0B1E4631362E70CD25DF
:1062F0006943C90A109C4C43011B30242143961E5C
:10630000317064215943401AC0B26843C00A204327
:10631000111F08701B48C5E7234A119230E4F9B2F7
:1063200010480A18531E0D221A7003F08DFD2548DF
:106330000121017097489621C18197484178FD223B
:106340000A40427029B0F0BDB2200D21054C215405
:10635000B321204603F078FD012001022046FCF71E
:10636000B8FEEFE7B10500208803002004020020FA
:1063700098030020D401002084AA000866AA00081F
:1063800098010020CCAC000834AD000880AD0008B6
:10639000C0AC0008B4AC0008A8AC0008372031201D
:1063A0003020302000000000DBAA00080F2700008A
:1063B000C5200000CDCC00007B140000E4AA00083A
:1063C000D2AA00087F030020B0B56B4CE078A1781A
:1063D000884219D16078032800D1CBE0607800288A
:1063E00000D1C7E06078042800D1C3E06B48807911
:1063F000C109022000F0C8FD0020607066484178A5
:10640000FB220A404270B0BDE078002820D0E0783E
:10641000FDF70AF95949FCF7FAFE5949FCF79EFEC7
:10642000FDF71EF9574D2880E1786279914212D923
:106430006079FDF7F9F85149FCF7E9FE5049FCF79E
:106440008DFEFDF70DF92880A278611D637915E0B6
:106450004C4D00202880E178227991421AD220798F
:10646000FDF7E2F84549FCF7D2FE4549FCF776FE18
:10647000FDF7F6F82880A278211D23799A4203D1EE
:10648000414800883F4A10800978E1703F49FF2267
:10649000CA708A703C490A8890421AD23C480178F6
:1064A000CA0737D13C4DE87802210143E970607892
:1064B000032805D06078002802D06078042839D1FC
:1064C00036488079C109032000F05EFD012060702C
:1064D0001BE0098888424DD92D480178CA0719D197
:1064E0002D4DE97802200143E9706178032905D038
:1064F0006178002902D06178042925D1607027488D
:106500008079C109032000F03FFD6878FB2101403C
:106510006970B0BD1F4A002313701C4A1378FE2512
:106520002B401370A378E370FF23D37029400170D0
:106530009370B0BD607802280FD101206070687838
:10654000EB2101401031E3E7617801290FD1607040
:106550006878F32101400831DAE76078012809D131
:106560000E488079C109032000F00EFDB0BD6078AF
:106570000228F5D0B0BDC04698010020000020429E
:1065800000007A44AC030020C20100202203002056
:10659000CA010020E4020020CD010020D401002027
:1065A00070470000F0B585B03E483F49072204928D
:1065B000FCF7A7FD00203D4B3D4F039001460C46E4
:1065C000C5B2284614301988884201D300F09CFCDB
:1065D000385C3238062801D900F082FC4000C04601
:1065E0007844808840008744060045008F04A4005A
:1065F0007B047B048400EF19B97DF87D02463A3AAA
:106600000A26F3439A4200D9ADE0352901D000F0C3
:106610007BFC2646049CE0B222490818062225A1EC
:106620000392FCF76EFD387E3038A41D04940528D3
:1066300000D949E21D4B40007844808840008744DF
:106640002A020500150225020C022F021B4A1078AF
:10665000C007344600D010E3194A9078BF210140AA
:10666000917018484078012800D127E31E46FDF7B5
:106670009DFD22E3EF19B87D3138082801D900F0DB
:1066800043FC02944000C046784480884000874420
:106690001B0064013B0451013B0176013B043B04B8
:1066A000E700C046B105002090AD000804020020BC
:1066B000B1040020322035203020000022030020C9
:1066C000CD01002098010020049CE0B2FC4908188C
:1066D0000622FC491646FCF714FD387EA41D0494DE
:1066E000652800DD74E13028FA4900D106E231283E
:1066F00073E1E819C07D302800D9F1E302940498D1
:10670000C0B2F34908180622F3493E460392FCF74B
:10671000F8FC384618300522FDA1FCF712FD0028D0
:1067200000D18DE0FC4A5078802101435170012056
:1067300087E0EE19B07D312800D0E5E301952546CC
:10674000049CE0B2F04908180627F4A13A46FCF789
:10675000D8FC307EA41D0494652823DC3028F14B3E
:1067600037D0312822E0322842D1312940D1049853
:10677000C0B2E54908180622EBA1FCF7C2FC787EFE
:10678000B97E0D2903D0202800D0FFE12020303829
:1067900007210391DD49C8700498C01D0490FFF7DC
:1067A00013FE2BE36628DF4B13D074282C4644D10C
:1067B0001E46DF4B997980220A439A719979C9095B
:1067C000D24A91743128019D00D009270397D94FEF
:1067D00031E01E46D64B99797F220A409A71997909
:1067E000C909CA4A917430282C4620D00A201FE0DB
:1067F000312900D088E3362800D116E1342800D1B1
:1068000000E1332800D07FE30498C0B2BE490818E5
:106810000722C9A10192FCF774FCB87E20280294DB
:1068200002D00D2800D068E2787E3038F9E20620E8
:106830000390C04F019D334652E3BE4F019D4FE38D
:106840000020B24CBA4F0499891D04912626A05508
:10685000B879C109072000F097FBA05DB8723CE34E
:106860000498C0B2A84908180622B5A10392FCF703
:1068700048FC787E0A214843BA7E1018103822233B
:10688000A24CE054387F48437A7F101810382322F6
:10689000A054B85CFE5C4E43801910382426019643
:1068A000A05526203E5C25203F5C4F43F11910394E
:1068B0002154E65C3F210E409D4CA778C0231F4029
:1068C000BE19924FA670BA5C0A40E6781E40B21814
:1068D000E270019ABA5C0A4026791E40B218227111
:1068E000385C08406179194008186071FEF7D2F9E8
:1068F0000220894908560499891D0491002800D571
:106900005AE120783873E8E20498C0B27E4908184A
:1069100006228DA10392FCF7F4FB387E01230921A6
:10692000312265283DDC3028784E814C40D031281A
:1069300041D0D6E00498C0B273490818062284A159
:106940000392FCF7DEFB787E202802D00D2800D0D1
:106950003CE1387E30380621A4E20498C0B26A498E
:10696000081806267CA13246FCF7CBFB787E20284F
:1069700002D00D2800D037E1387E303840E104984D
:10698000C0B261490818062675A13246FCF7B9FB6A
:10699000787E202802D00D2800D060E1387E303883
:1069A000EAE17428594E624C05D0662800D098E080
:1069B00000230A2130223374337C66787F273740E6
:1069C000DB01FB186370904200D187E0039187E000
:1069D00066284E4900D191E07428564F00D05DE101
:1069E0003128504B00D00926C87A0028029C07D1D4
:1069F0005D485E4981821F46FDF7F4FA3B464D4FE4
:106A000003966DE20498C0B23F490818072258A1C6
:106A10000192FCF776FBB87E202802D00D2800D02A
:106A200060E1787E30380199D0E10294049CE0B2B4
:106A300035490818072250A1FCF763FB787EE41D56
:106A40000494662800D141E17428364B394F00D0B8
:106A500003E12E4880790396FFE02F4A9078402189
:106A6000014391701C46FDF7A1FB17E0444A1078E2
:106A7000C007344600D0FEE0274A9078BF2101408D
:106A8000917022484078022816D117E1224A907866
:106A90004021014391701C46FDF75AFB234614E048
:106AA0003848008838498842344600D906E11A4AF5
:106AB00090784021014391701E46FDF7EBFAFCE00F
:106AC000B1050020EDAA0008164B1A4F344607E224
:106AD000B105002098010020F4AA000806200390C8
:106AE0000A4E0498801D0490FEF7D4F802200A494B
:106AF0000856002865D420783073EEE1302800D1A4
:106B0000CEE00A20CDE0C046B1050020980100206B
:106B100066616C7365000000CD01002035203120D6
:106B200030200000040200203220313220302000CA
:106B3000D4010020B1040020322031332030200065
:106B40003320392030200000332035203020000051
:106B50003320342030200000332032203020000049
:106B60003320362030200000E4020020B80B000063
:106B700032203134203020003220313620302000C5
:106B800022030020C201002087130000202900D129
:106B900096E0FA7E0D2A00D192E0202A03D03B7FB6
:106BA0000D2B00D0F8E5642343430A204843C01866
:106BB000801830300921ECE560787F21014039737D
:106BC0008BE160787F210140317386E1B97E202915
:106BD00002D00D2900D09BE0397E0A224A4380185A
:106BE000E149401807215DE1B97E202902D00D2935
:106BF00000D09EE0397E0A224A43801810380726CA
:106C0000CD4BCF4C20733746E07A0028CD4E0FD1C4
:106C10000120E0723089D74940180521FCF792FD28
:106C2000D5490880B079C109032000F0ADF9C24B05
:106C30000498801D04900220F34909560120325621
:106C4000002A06D5002904D5EF4AD1780143D17036
:106C500001E0207B30700397B84F029C40E1B97E81
:106C6000202901D00D2977D1397E0A224A43801884
:106C70001038072680E0022000E00120507000203C
:106C8000B7490870B7481E4603460078FE21084001
:106C9000187033461078084010700FE0A64BDCE700
:106CA00006200390A44BC87A0128029C06D1AC4868
:106CB000B24981821E46FDF795F933469F4F0FE199
:106CC0000A22424388181038082162E59C488079DE
:106CD0000B2103910128984BBED11C46FDF738FAD1
:106CE0002346B9E7F97E202901D00D2960D1797EAC
:106CF0004E4380191038082168E0F97E202901D020
:106D00000D297DD1797E4E4380191038082187E006
:106D1000FA7E202A02D00D2A00D0AFE00A22424398
:106D20005018397E64224A4380189049401808213F
:106D3000B8E0FA7E202A824C7F4B03D00D2A039EB6
:106D400000D060E70A2242435018397E64224A4349
:106D500080183030082654E7FA7E202A784C02D07A
:106D60000D2A039E0AD10A2242435018397E64221A
:106D70004A43801830300826714C6074039604989A
:106D8000801D0490607C7F2630406E4F7978802291
:106D90000A4010187870FDF77DFF02209A490856C6
:106DA000002801D4387801E078783040207394E0EE
:106DB0003A7F202A624B01D00D2A0AD1464370182F
:106DC000797E64224A438018303009215C4B587127
:106DD00003910498C01D049058795A49C872C87A22
:106DE00004215970FCF720FC5749FCF710FA574969
:106DF000FCF7B4F9FCF734FC554908804F4F6EE0BE
:106E00003A7F202A4E4C03D00D2A039A01920AD1D0
:106E100046437018797E64224A4380183030092135
:106E20000191474C20710498C01D04902079494E6F
:106E3000711C444BDA890A401018D881D889400463
:106E400014D0D8893040FCF7EFFB3F49FCF7DFF95D
:106E50003E49FCF783F9FCF703FC3F4908803F49B2
:106E60000988814207D20320607004E000203A497B
:106E700008803A480088019803902EE03B7F202B41
:106E80002F4C01D00D2B10D10A234B4364214143D9
:106E9000C8188018397E7D22D2004A4380183449B0
:106EA000401809210391264CE081E07A0028254E04
:106EB0000ED10120E072E0892E4940180521FCF72F
:106EC00041FC2D490880B079C109032000F05CF82D
:106ED0000498801D0490E0893081184F029C164B65
:106EE0000398C0B22818611C062C01D2FFF767FB7B
:106EF000124C2449142520462A46FCF702F9204664
:106F0000294602F0A1FF13E00498C1B209480A180B
:106F1000531E0D221A7002F097FF194801210170CB
:106F200096200F49C881384A5078FD2101405170A0
:106F300005B0F0BDB105002004020020B10400201E
:106F400098010020D40100200000204200007A4473
:106F5000AA030020FF7F0000AE030020C201002032
:106F6000E4020020CA010020F0FDFFFF30EBFFFF2C
:106F7000B02F000048F4FFFF76030020B80B00009C
:106F80007F030020E0AB000870B504461E4800797E
:106F9000800737D40D46012001029948FDF7E9FB2F
:106FA000D5480026314600F001FB18480670184805
:106FB000067018480670184918480860002D21D03E
:106FC000611E07291AD8C0467944097949008F44BF
:106FD000030D0709050F110B18490CE013490AE0CE
:106FE000144908E0124906E00D4904E0124902E0A4
:106FF0000D4900E00B493CC93CC070BD06604660CD
:107000008660C66070BDC046CD0100207A030020B6
:107010007B03002060030020000000203C000020D3
:1070200080A7000870A7000860A7000850A7000804
:1070300040A7000830A7000820A7000810A70008F4
:1070400070470000F0B51E4901220A601D4B186808
:107050001043186058681C4C04405C600020586263
:107060001C6814431C6094022546FF356D1E0646BD
:1070700046411F68BF0701D4002EF7D11D68AD0738
:1070800000D4FEE75D687026B5435D6007252D02DC
:107090005E68AE4326435E605C6894435C605C68F7
:1070A000A407FCD40B681343062293430B600749E3
:1070B0000A4600BF521EFCD1401C6428F8D1F0BD26
:1070C0000020024000100240FEFFFE832823000043
:1070D00080B5FDF723FC80BDF0B581B0854E30460C
:1070E00000F0BDFB002540210091184822C6306009
:1070F0007560174C2046083E314600F0BBFB154F2B
:10710000384600F0BBFA0420012661C73D60786074
:1071100020460C3F394600F09BF90621204600F03E
:10712000DFFB2046009900F0EAFB0848411C20469E
:1071300000F0DCFB02212046324600F061F92046D7
:10714000314600F033FA01B0F0BDC046FFFF000049
:10715000002C014094020020F0B581B06448012663
:1071600000960660634C204600F079FB002519204C
:10717000800126606560A060E5603E48214600F021
:1071800079FB5E4F384600F065FBFD603D610424ED
:10719000C0263E607C603748394600F077FA3548B3
:1071A000214600F036F9384600F054FBFD603D61A1
:1071B0003E607C602F48394600F09AFA2D4E3046EA
:1071C000214600F02CF93046009C214600F00EF9D3
:1071D0003046214600F0F2F93046294600F098FB8F
:1071E0003046294600F0A2FB3046294600F0DEF981
:1071F000E1030348FDF7BDFAB562F56201B0F0BDE9
:1072000000300240F0B581B03C4D284600F022FB32
:10721000082000900027EF6028610426C02450C594
:10722000F748083D294600F097FAF548314600F046
:10723000FEF8284600F00EFBEF600098286150C56C
:10724000EF4C2046083D294600F0C4FA204631465E
:1072500000F0F3F801252046294600F0C7F8204643
:10726000294600F0ABF92046294600F09FF901B00D
:10727000F0BDC04600040040F0B581B01C480124B8
:107280000460C74E304600F0EAFA8020002790C61E
:1072900037607060184D2846083E314600F0EAFA23
:1072A000164E304600F0D6FA0820F7603061042709
:1072B000C02081C62846083E314600F04DFA2846D7
:1072C000394600F0B4F82846214600F077F9284600
:1072D000214600F08BF8064801682202284600F09B
:1072E000B4F82846214600F061F901B0F0BDC0466F
:1072F00084020020C802002000340140A8020020BF
:1073000070B501256C022046FCF7C8FF002802D0AA
:107310002046FCF7BBFF2D04A34E3046294600F063
:1073200071F9002808D03046294600F007F82046B9
:10733000FCF7ACFFFDF732FB70BDC0463F290FDC08
:107340004A1E072A25D8C0467A441279520097442B
:10735000032C4130414141288021C9437F3138E02D
:10736000C54A914209DC402927D0802929D0012231
:10737000120491422ED118492BE001225304994264
:107380001DD0930499421FD09205914222D11549F4
:107390001FE010291AD020291CD18021C943603157
:1073A00017E08021C943783113E08021C9437E3141
:1073B0000FE08021C9437C310BE00B4909E008490B
:1073C00007E08021C94304E0044902E08021C94369
:1073D000703181607047C046FFFFFEFFFFFFF7FF7F
:1073E000FFFFFBFFFFFFFDFFFFFFFFFE4A1E914176
:1073F0004902012252020368934359180160704701
:10740000002A02D042690A4301E042698A4342618C
:107410007047826904239A430A43826170470122BC
:107420009202836993430902194381617047C269DB
:1074300004239A430A43C261704701229202C3693E
:10744000934309021943C16170470164C2607047E8
:10745000F0B582B08C68012C01D0012200E002223C
:1074600001924F687A427A41D200436A0D690E68F0
:10747000002E33D04026B343436223022C031C4327
:1074800083690095314D2B402343446A83618023F7
:107490009C433B0123433343436283692C4C234089
:1074A0008361C9680B0284691C438461436A0424B4
:1074B000A34343628369F326B343009D2D011D431B
:1074C000019BEB18456A836108239D432A432243AD
:1074D000426282690C239A43826132E0042600965C
:1074E000B34343628369F326B3432E011E4326430D
:1074F000436A86610824A3431F43009B1F434762DE
:1075000083690C24A3438361C96883690B43836146
:10751000436A4024A3434362019B1B022D03EB18E3
:1075200085690A4E35401D43436A85618025AB431A
:1075300012011A43224342628269054B1A4082615A
:10754000090282690A43826102B0F0BDFF0CFFFFAD
:10755000FFF3FFFFF0B581B0114D284600F07FF931
:1075600000263F270F482F606E60A860EE600E4C2B
:107570002046294600F07EF9204639463246FFF77C
:1075800064FF0125290420462A46FFF739FF2046DB
:10759000294600F00BF8FFF79FFD01B0F0BDC04693
:1075A000C8020020E7030000001000404A1E91417D
:1075B000026801239A435118016070474A1E9141A5
:1075C000090201221202036D9343591801657047A5
:1075D000E449884202D0E449884202D1806A80B2FC
:1075E0007047806A7047C046DE49884202D0DE4953
:1075F000884202D1C06A80B27047C06A7047C046F4
:1076000000040040B0B500223F2912DC4B1E1F2BA6
:1076100009D801249C40174B1C420B4603D08268BA
:107620001A40531E9A4140690840411E884110404B
:10763000B0BD114B99420ADC402913D080290B467A
:10764000EDD001231B0499420B46E8D0EBE701245F
:107650006304994209D0A504A94208D0A405A14217
:10766000DDD0E0E701221306D9E7A304D7E7E3045E
:10767000D5E7C0468B800080FFFF0100002101227A
:10768000016041608260C16001617047F0B583B004
:10769000426A04239A434262426A08239A430C696D
:1076A00014430B684A68224345688469AD4EB04272
:1076B00013D10326F643009632404F698E69019636
:1076C000CE6902960126B74317438A683A43009E63
:1076D0003540019E3543029E35434560E325AC436A
:1076E0001C438461C9688162426203B0F0BDC04638
:1076F000F0B581B0426A40239A434262446A8022D4
:1077000094430CC98D681D432B012343466884694B
:10771000944D0839A84201D0354611E00C25AE43FE
:107720004D6900958D69CF692F43BD0035433026E3
:10773000B343009E760876011E438B681B013343DA
:107740004560E3252D02AC43120222438261C968E1
:10775000C162436201B0F0BDF0B581B00122930275
:10776000446A9C434462D202446A94430CC98D68C3
:107770001D432B0223434568C4697B4E0839B04240
:1077800016D0784EB04219D13026B5434E690096D6
:107790008E69CF6937433E012E4303252D02AB434B
:1077A000009D6D086D021D438B681B022B4306E094
:1077B0001026B5438E6936012E4300E02E46466002
:1077C000E325AC431443C461C9680163436201B05B
:1077D000F0BDC046F0B581B001229303446A9C43DA
:1077E0004462D203446A94430CC98D681D432B0341
:1077F00023434568C4695C4E0839B04216D0594EDF
:10780000B04219D1C026B5434E6900968E69CF6942
:107810003743BE012E4303252D03AB43009D6D0866
:107820006D031D438B681B032B4306E04026B543C5
:107830008E69B6012E4300E02E464660E3252D02F8
:10784000AC4312022243C261C9684163436201B082
:10785000F0BDC04680B52021FBF73BFC80BD002178
:10786000CA43016041608260C16001614161816120
:107870007047000010B503683A4A3B4CA04204D060
:10788000164CA04201D0904204D10E24A3434C6870
:107890001C4300E01C46904205D004608A684264A4
:1078A0000A6802640AE0C0239C43CB682343136048
:1078B0008B6853640B6813640B69D3640122130251
:1078C000C36052034B6989699343092252030468D8
:1078D00094431C430C43046010BDC0460034014077
:1078E000026907239A430A43026170470122120486
:1078F00003699343036102690A43026170470269A5
:10790000F0239A43026102690A4302617047000052
:10791000826A144B984202D0134B984203D1164B03
:107920001A400A4300E00A4682627047C26A0D4B61
:10793000984202D00C4B984203D10F4B1A400A4395
:1079400000E00A46C2627047026B064B984202D0C2
:10795000054B984203D1084B1A400A4300E00A46FF
:1079600002637047002C014000040040426B024B50
:1079700013405918416370470000FFFF70B501269E
:107980007502184C2046294600F056F8002809D008
:107990002046294600F02EF8204600F09FF8C0B29D
:1079A00002F036FA35022046294600F045F8002854
:1079B00017D02046294600F01DF80B4D28880028D6
:1079C0000CD00A4E30680178204600F08BF8306801
:1079D000401C30602888401E288070BD044800216B
:1079E000017070BD00380140800300208403002036
:1079F000A8030020C943C1607047000010B5094BBF
:107A00005C1C214204D18C0001D4083000E0001D30
:107A10001940002A02D002680A4301E002688A4342
:107A2000026010BDFFFFFF0F4A1E91410268012353
:107A30009A43511801607047C0680840411E884150
:107A400070470000B0B584B00D4604464068602120
:107A50008843A9680143616020681F490140686844
:107A60000843E968014368690843296901432160C3
:107A70006846FDF7B3FD2068400101D5012000E014
:107A800002200299C140192048432968FBF73AFEB9
:107A900005466421FBF736FE6321C943414349197A
:107AA00005012068400107D4080132306421FBF74A
:107AB00029FE1F21014008E0C80032306421FBF795
:107AC00021FE0F210140082901D20D4300E01035AD
:107AD000656104B0B0BDC046C1FFFFFB016903484A
:107AE00008407047014A0A4002617047FF010000E8
:107AF00070B55A480078062811D3604E30780128B6
:107B000041D100203070624C6249092520462A4646
:107B1000FBF7F7FA2046294602F096F970BD504966
:107B2000087A401C0872087A032849D3002008729A
:107B30004C490A884C4B9A423FD86A4A127912073C
:107B40003BD40A88D2087C2A1AD9088847494018A9
:107B5000FBF772FD0024464B2246FBF785FC454BA4
:107B60002246FBF7E9FCFBF795FD81B2424A4A4306
:107B7000D10C0A224A43801A80B2052821D3481C1E
:107B8000B649887070BD364D287A401C2872287A14
:107B90003B4941433B48814232D832480288642104
:107BA000314B9A422AD84F4A1279120726D40188BB
:107BB000C9087D2907D2002120E0A84864218170EE
:107BC00070BDA648FBE7008828494018FBF734FD44
:107BD0000024274B2246FBF747FC264B2246FBF7A7
:107BE000ABFCFBF757FD81B2234A4A43D10C0A2272
:107BF0004A43801A80B2042800D9491C97488170F2
:107C0000287A214941432148814212D9287A9D2866
:107C10001CD100202872204800780328D0D11C4CA9
:107C20001E49052520462A46FBF76BFA20462946C1
:107C300009E017480D21C1707421817065214170E0
:107C40006E210170042102F0FFF804E001F0C6FB90
:107C5000002800D157E70120307070BD7C03002060
:107C6000E4020020C20100208713000018FCFFFF7F
:107C700000408F400040AF40CDCC00007F0300208B
:107C8000ABAAAAAA55555555295C8FC2A3703D0AC7
:107C9000B105002068AC00086C02002008A90008AB
:107CA000B0B5104CA07830252840102819D102F02A
:107CB0003FFA02F023FA072001030B4802688A43C7
:107CC00002600121090302680A4302600168702210
:107CD00091430160016810220A430260A0782843A2
:107CE000A070B0BDCD0100201C040040F0B581B0F3
:107CF0005A4D69785A48012902D06978022941D140
:107D000040242146FCF730FD002825D05549888BBA
:107D1000401C8883888B0A2800D291E00020888349
:107D2000514E317910220A433271504909780907BE
:107D300000D585E068704E488079C1090220FFF7C0
:107D400023F94C48FF218170707820437070F078DF
:107D5000FD210140F17073E04248817F33290ED349
:107D600000218177404A1379EF241C4014713F4A67
:107D70001378DC0703D00170FE210B401370002143
:107D800081835DE04021FCF7EFFC002814D03748E8
:107D90000178CA0743D1334A938B9B084B2B33D3CB
:107DA0000023138213700122114301702E480178C1
:107DB00020220A43027032E02A4EB07F33283FD39C
:107DC0000024B47728480279EF2111400171274936
:107DD0000B78DF0727D141784B062DD4B38B152BB9
:107DE0002DD304231A402AD1234A1388234A178803
:107DF0009F4224D301236B703485202319434170A3
:107E000010881F4908801AE0908B401C9083908B4B
:107E10000A2804D31448017910220A430271114838
:107E2000002181770CE03470FE2003400B700121AB
:107E30002046FFF7A9F802E0BF2211404170B48349
:107E4000104E3078052800D9C2E1C0467844007948
:107E50004000874419835E7943A7C04698010020FB
:107E600000300240E4020020CD010020CA010020C1
:107E7000D401002022030020AE030020C201002014
:107E80001E02002079030020FD4E7188FF202C3057
:107E900002469C32914200D8A9E0F348818C491CEB
:107EA0008184818C0B2900D292E10026868406828F
:107EB0008670EE4C217820220A432270E9490A7824
:107EC000042313430B707D21C900418501F00CFA96
:107ED0006E70A078BF210140A17079E1E2490020D5
:107EE00088834A8E531C4B86FF232C335B1C9A429B
:107EF00001D9687048866978042903D06978002917
:107F000000D065E13070D7480178F7220A4002704E
:107F10005EE1D548002101824170D7490A78FD23EE
:107F200013400B700221697003223270CF4A13781C
:107F300020241C431470CB4B1C780C431C705178CC
:107F400008230B43537028E06878042803D068782E
:107F5000002800D03CE10020307039E1C248002107
:107F600001820170418602216970C3490A78F723B2
:107F700013400B7004213170BC49CA78FD231340B3
:107F8000CB70B84A13780824234313700A7820234F
:107F900013430B704A7822434A70FF212C31C931B8
:107FA000418315E1B04800218183828E531C838672
:107FB000652A0DD3AD4A1379DB0602D4AB78642B66
:107FC00000D1697031708186D3787F241C40D470D1
:107FD0006A78002A03D06A78012A00D0F8E031706C
:107FE0008186A248C1787F220A40C270F0E06130E9
:107FF0007188814202D29C48002181849B4C607828
:10800000400702D4282028816EE0974F388DC7287A
:108010000CD8388D401C3885388D5F2829D1002038
:108020003883934800889849086056E0B87A411C24
:10803000B972652858D30022BA726878012805D130
:108040008C4800888F49096881421FDA68780228C5
:1080500005D1884800888B490968814216DD894826
:108060000068844908807F480178FB220A4002703A
:108070003AE0388DC32830D17D4A1088824B196888
:1080800012881B68814218DAD01A1DE03A82BA7051
:1080900020782021014321707D20C000788571481F
:1080A0000178174604220A43027001F01DF96F702F
:1080B000A078BF210140A17016E09A420DDA724803
:1080C00000686B490988401AFBF7B6FA6F4A704B93
:1080D000FBF732FAFBF7DEFA28816A486D49016046
:1080E000644801800020B872A07880072AD5E07823
:1080F000400627D477885E484088FBF795FA01F060
:10810000A5F887420CD95848418C491C4184418CC0
:108110003C2917D30221594A11700021418411E0F2
:10812000778853484088FBF77FFA01F08FF80838CA
:10813000B84207DD4C48002141844A480178FD22BD
:108140000A400270A07840073FD5A87804283CD3A5
:1081500071885148028852180280504B1978491C86
:108160001970C9B20A2933D3002119704C4E3378E3
:108170000A2B01D85B1C337001805E004948361819
:10818000B61E92B2484F5743FA0C32800B2B1FD1C8
:10819000464A11700388464A13800E464218578893
:1081A0009F4205D9424B1F80761C404B1E703B46B8
:1081B000122948D0445AA74205D29288BA4202D224
:1081C00000263A4A1670891CE8E7344800210170FD
:1081D000A44801788A062BD5DF221140017021487E
:1081E00000780921084208D01F480178491C017015
:1081F000C9B203290ED8022017E041070DD4800729
:1082000016D519484178491C4170C9B2032917D8BD
:1082100005200AE0032101700AE013488178491C17
:108220008170C9B2032908D80A200121FEF7ACFEEB
:108230000C480078287001B0F0BD03218170F7E789
:1082400003214170F4E7811C1422FAF75AFFF0B2BF
:108250008649497B091D81420849B9D80120087027
:10826000B6E7C046CA010020E4020020CD0100208C
:10827000C20100201E0200202203002079030020FA
:108280003802002044020020200200206666666654
:1082900066660640102700005E0300205C03002095
:1082A0003A00002020000020CDCC00007803002000
:1082B00036000020F0B585B000910246092041014A
:1082C000002050525118029188600192D379032BFB
:1082D00002462BD3019D0C35FF202E300390022443
:1082E00000221046E7071DD1402C08D82F885C4992
:1082F0007F18BFB203998F4211D3002710E01646B2
:108300004000029988602F88554ABF18BFB2039A6F
:10831000974202D2012738438860324602E00127A3
:108320005200D219AD1C641CA342DBD1FF21D3B291
:108330008A4302994A600B804A4EB17801270907A7
:1083400040D40099002904D02621474C615C0029C3
:108350001BD0792B2FD104AEF070010AB170010C43
:108360007170000E307000252846FCF7F1FC304695
:10837000FDF76CF9284604A9495D000240186D1C00
:10838000042DF8D10299886019E0792B13D1374B6D
:10839000997949061CD019461C31002310C9A24204
:1083A00019D0FE4CA4797F2525405B1CAB42F5D348
:1083B000DAB2002131E000F013FB002806D00020E3
:1083C000019948803946084605B0F0BD0021FAE71A
:1083D0000022114622E004ACE070010AA170010CF9
:1083E0006170000E207000252846FCF7B1FC204685
:1083F000FDF72CF9284604A9495D000240186D1CC0
:10840000042DF8D1029988600021019A5180717879
:108410007F220A40727001210422E04B9B797F2465
:108420001C40A242CFD104ACE070010AA170010C43
:108430006170000E207070788021014371700025FA
:108440002846FCF785FC2046FDF700F9284604A9DC
:10845000495D000240186D1C042DF8D192E7C0461A
:1084600076FD0000CD01002098010020D4010020FD
:10847000F0B581B00C460546C34F7A78B879052827
:1084800003D10020B871002A2FD0012A0AD17888A0
:108490002C2803D8401C7880012203E002227A7045
:1084A00000207880E9780F200B46034002D02E8808
:1084B000761C2E80012A02D0022A01D100222A71C4
:1084C000052B75D87B441B795B009F440235293FFF
:1084D000714F2A79012A53D10122AA7000222A80E1
:1084E000F0221140491CE97062E0A74E3046214657
:1084F000FFF7E0FE002850D00120707009204001F5
:10850000305AB1888142C2D0B080332800D115E101
:10851000992800D10FE1792800D012E19B4812E19F
:108520002A79012A29D100222A80F0221140C91C6F
:10853000E970A97801403AE02A79002A09D100229D
:108540007A702A80F0221140891C2CE02A79002AB6
:1085500025D08F4A12882B88934229D9F0221140C6
:10856000491DE970A9780140A03120E02A79012A4B
:108570000AD1A9780140B03119E00021797017E0E3
:10858000A9780140D03112E000227A70F022114027
:10859000E970A9780140C03109E0727875E70022DE
:1085A0007A70F0221140E970A97801401031A97069
:1085B000A9780840D030A87008090D2801D101B071
:1085C000F0BD0F2911D8B888792833D17A48002115
:1085D000017026207049085C00284BD0072001213B
:1085E000FEF7D2FC00F074FDE9E70A28E7D1B8886D
:1085F00033284DD07928E2D1002CE0D00124DF4887
:1086000000570028DBD46848002505700720214664
:10861000FEF7BAFCFCF79EFC644845707D2189009A
:108620002831634A118063490988322900D902241C
:108630000470C4E75C4900250D7055280FD1FBF785
:1086400087FDCE488178BF220A408270002CB6D0C8
:1086500050480078C00760D157480570AFE75649C9
:108660000D70322838DC0F2870D01128A7D1FBF705
:108670009DFD70E0002CB1D00120C04908560028B3
:108680006FD4CD488079C1090120FEF77DFC96E7C3
:1086900040480078C00792D03F4881781E2902D315
:1086A000817864298BD102214170B44CE07880211B
:1086B0000143E170F6488079C1090320FEF764FCAC
:1086C000374800218186374A0523137081836078FB
:1086D000FB210140617072E733283AD0FE2800D0B8
:1086E0006DE72D4C6078002803D06078042800D016
:1086F00065E72B480586A14DE87840210143E970E4
:10870000E3488079C1090320FEF73EFC0120607038
:108710006878FB210140697051E7274C2078401CA4
:108720002070C0B2022822D8D9488079C10901201E
:10873000FEF72AFC24E01920400104E01348FA3037
:1087400001E07D20800012490880A0E6FBF74AFC8A
:1087500035E7FBF79FFC89488178BF220A40827089
:108760002DE70C480078C00700D128E736E703283A
:1087700006D102200121FEF707FC00F07FFC2570E6
:10878000074805841BE7C0466C0000204605000032
:1087900074030020CA01002098010020D4010020A9
:1087A000E4020020790300208C0200202402002033
:1087B0002C020020640300208A020020B0B56F4A1A
:1087C0009078000700D5B4E06B4801786C4C2578B0
:1087D000052D18D8652900D171E06F2900D0A8E0D7
:1087E000017842781202511882781204C07800068B
:1087F000801840187249884200D09AE0042D00D1B8
:1088000094E0012093E01379DD0752D10A46633AE0
:10881000092A5FD87A441279520097447104746C23
:108820006C6C6C6C6C715A4853490B22FAF789FCDA
:1088300000287ED0574850491022FAF782FC0028C1
:1088400000D191E054484C491322FAF77AFC0028F1
:1088500078D0524848491222FAF773FC002877D0A2
:108860004F4845491222FAF76CFC002873D04D4856
:1088700041491222FAF765FC00286FD04A483E4968
:108880000B22FAF75EFC00286BD048483A491022C8
:10889000FAF757FC002806D0454837491622FAF760
:1088A00050FC002845D1A078002842D10120A070BA
:1088B00021E0FE200340137132481A211DE03248A6
:1088C0002D490722FAF73DFC042D32D1002830D182
:1088D00005202DE0752913D06F290CD1017842783D
:1088E0001202511882781204C078000680184018CD
:1088F000334988421DD02548142101F0A5FA18E01B
:10890000FCF76AFA15E020481B490722FAF719FC20
:1089100000280ED1A07800280BD10120A0701B48A0
:10892000142101F091FA01F06DFA02E002204019E1
:10893000207024480188B42900D8B4210E48FAF7E1
:10894000C8FBB0BD5248C1891C4A0A40C281F0E749
:1089500018481121D1E7FCF7BDFFEAE7FDF722FE39
:10896000E7E7FBF789F9E4E71448401C4849CA895E
:108970000243CA81FBF76EFAB1040020CD0100204A
:108980007C03002092A8000803AA0008E0AB0008BE
:108990002CA9000856AA0008B9A90008E8A90008EF
:1089A0000AAA00081FAA0008ACA9000856A90008D6
:1089B000C0A8000830AC0008D4010020FF7F0000F0
:1089C0006F6B0D000402002003480068034909682A
:1089D000081A411E88417047A4030020A00300200C
:1089E000F0B587B005902A4DA979002049064CD0F2
:1089F000284B49218900049159580124002907D1A5
:108A00002522D2009A58244B9A4201D120463CE0BC
:108A1000AA79520639D000942E4610360598020ADB
:108A20000392020C0292000E01900027F06881422E
:108A300021D12C4606AD0598E8700398A8700298DD
:108A40006870019828703068FCF782F92846FCF7B6
:108A5000FDFD104A0498115809204001105AEA7887
:108A6000904207D106A880780A0AD2B290422546E1
:108A700001D109E02546A8797F220240361D7F1CDE
:108A80009742D3D3002000E0009807B0F0BDC04665
:108A9000D40100206C000020A55AA55AF0B581B081
:108AA0000546FA4F387B844E3080F8898349401858
:108AB00005242146FAF746FE81490880012D1ED083
:108AC000002D00D0F5E07F490988814C00295AD05B
:108AD0004D1EA9B203274F4386B230467843642423
